:020000040800F2
:1000000000040020910100081F5F00089301000810
:100010009301000893010008930100089301000870
:100020009301000893010008930100089301000860
:100030009301000893010008930100089301000850
:100040009301000893010008930100089301000840
:100050009301000893010008930100089301000830
:100060009301000893010008930100089301000820
:10007000930100089301000893010008E56C000853
:10008000796D0008930100089301000893010008AE
:1000900093010008930100089301000893010008F0
:1000A00093010008930100089301000893010008E0
:1000B000930100089301000893010008C96D00082E
:1000C00072B6244880F30888234880F30988022008
:1000D00080F31488BFF36F8F05F030FC05F0FCF956
:1000E0001E481F491B4A914202DA08600431FAE7B0
:1000F0001C49194A914202DA08600431FAE71A49A8
:100100001A4A1B4B9A4204DA086810600431043220
:10011000F8E700201749184A914202DA08600431D2
:10012000FAE705F00FFC05F00AFC144C144DAC4244
:1001300003DA216888470434F9E702F057F9114CD3
:10014000114DAC4203DA216888470434F9E70F49BE
:100150000847000000040020000C002055555555AC
:1001600000000020000400208C7D0008000C00200E
:100170009C0D0020A00D002058260020C000000883
:10018000C0000008C0000008C00000084159000875
:1001900096E700F000F8FEE7F0B544464D465646B7
:1001A0005F46F0B46B46CB60C3689D46F0BCA0468A
:1001B000A946B246BB46F0BD62B6281CA047002047
:1001C00005F02AFEFEE705F08DFD024A024B1360A2
:1001D000FEE7C04604ED00E00000008002B4714676
:1001E00049084900095649008E4402BC7047C04680
:1001F00002B4714649084900095C49008E4402BCBA
:100200007047C04603B47146490840004900095A86
:1002100049008E4403BC7047002934D001230022DA
:1002200010B488422CD301242407A14204D2814275
:1002300002D209011B01F8E7E400A14204D2814285
:1002400002D249005B00F8E7884201D3401A1A4302
:100250004C08A04202D3001B5C0822438C08A04239
:1002600002D3001B9C082243CC08A04202D3001BEF
:10027000DC082243002803D01B0901D00909E3E769
:10028000100010BC704701B5002000F05FF802BDFF
:100290000029F8D003B5FFF7C1FF0EBC4243891A0D
:1002A0001847C046002941D010B404004C40A44671
:1002B00001230022002900D54942002800D54042F0
:1002C00088422CD301242407A14204D2814202D2C5
:1002D00009011B01F8E7E400A14204D2814202D2E5
:1002E00049005B00F8E7884201D3401A1A434C08E2
:1002F000A04202D3001B5C0822438C08A04202D318
:10030000001B9C082243CC08A04202D3001BDC083F
:100310002243002803D01B0901D00909E3E710009C
:100320006446002C00D5404210BC704701B5002047
:1003300000F00CF802BDC0460029F7D003B5FFF766
:10034000B3FF0EBC4243891A1847C0467047C046E7
:10035000002B11D1002A0FD1002900D1002802D092
:100360000021C943080007B4024802A140180290C6
:1003700003BDC046D9FFFFFF03B4684601B502982C
:1003800007F05CF8019B9E4602B00CBC7047C0466B
:10039000D0400B00D1409C46203AD34018435242F3
:1003A00063469340184370479140030090409C4639
:1003B000203A9340194352426346D3401943704751
:1003C00010B5002903D100F007F8203002E0080042
:1003D00000F002F810BDC0461C2101231B04984206
:1003E00001D3000C10391B0A984201D3000A0839C6
:1003F0001B09984201D30009043902A2105C40187D
:100400007047C04604030202010101010000000020
:100410000000000070B5CCB283070DD0531E002A37
:100420000FD0032504E00130284206D0013B08D359
:100430000278A242F7D170BD1300032B0CD8002B19
:1004400001D10020F7E7C31802E001308342F8D061
:100450000278A242F9D1EEE7FF2529400D02294397
:100460000D04074E0D43026806496A405118914336
:100470003142E8D1043B0430032BF4D8DFE7C04617
:1004800080808080FFFEFEFE30B5032A0CD9030079
:100490000B439B0719D103680C68A34215D1043A9A
:1004A00004300431032AF6D8551E002A0BD000234D
:1004B00003E05A1C9D4206D01300C25CCC5CA242F1
:1004C000F7D0101B00E0002030BD551EEFE7C046FE
:1004D000F0B5C64600B50F2A41D903270D003E00EE
:1004E00005430C0003002E402F423DD11500103D66
:1004F0002D09A8462D01AC46844427681D001F60C5
:1005000067685F60A7689F60E7681034DF6010333A
:100510006545F2D145460F230C2401352D014919BB
:1005200013404519144222D08C59AC5104369C1BFF
:10053000032CF9D8043B9B0801339B00ED18C91824
:1005400003231A40561E002A06D00023CC5C1A0052
:10055000EC5401339642F9D180BCB846F0BD050099
:10056000561E002AF1D1F7E70500561EEDE71A00E6
:10057000F6E7C046F0B50500830749D0541E002AAF
:1005800045D003000326CAB202E00135013C3ED348
:1005900001332A703342F8D1032C30D9FF220A40AC
:1005A000150215432A0415430F2C34D92700103F98
:1005B0003F093E01B4461E001A001036664415601D
:1005C00055609560D5601032B242F8D101373F01D5
:1005D000DB190F270C22274022403C00002A0ED0B6
:1005E0003E1FB608B400A4461A001C1D644420C275
:1005F000A242FCD103240136B6009B193C40002CDA
:1006000005D0C9B21C19197001339C42FBD1F0BD51
:1006100003001400C0E72700E2E7C046704700006F
:1006200010B5094C2378002B0CD0084B188804F027
:10063000E6FBFA239B00984204D9E22000F092FAEC
:100640000023237010BDC046A20D0020A00D002085
:10065000FE2310B5DB01984204D01A4B984215D006
:10066000012010BD8B78002B27D0174B1A78002A59
:1006700004D10132E2201A7000F0F6F904F0BAFB5E
:10068000124B18802B2000F0EFF9E9E78B78002B54
:1006900010D00D4B1A78002A04D10132E2201A70D2
:1006A00000F0E2F904F0A6FB084B1880E12000F00E
:1006B000DBF9E7E7E12000F055FA2B2000F052FAD1
:1006C000CEE7C046017F0000A20D0020A00D002053
:1006D000F0B507000E0085B0002819D1012402AD45
:1006E000002918D06B461C809C7004F083FB6B467D
:1006F000204398800098019900F078F92C80AF7021
:1007000004F078FB2043A8800298696800F06EF935
:10071000012005B0F0BD6B4602279C701F8004F0DD
:1007200069FB6B46204398800098019900F05EF9C0
:100730002F80AE7004F05EFB0443AC80E4E702203F
:100740007047000010B5130004000020012C09D8E8
:10075000814207D1052A05D8062262430249D218F0
:100760005200505A10BDC0461E7600080120704746
:1007700010B5FFF76DFF10BD704710B5FFF7FCFF18
:1007800010BD000013B5104B00901B78002B16D144
:100790006B469B78002B0DD0002A0BD000F0CEFDCD
:1007A00004000100009800F0A5FD2000009901F070
:1007B000F1FB16BD009800F0AFFD0400F5E70098CE
:1007C00000F0BCFD0099F2E7A80D002010B5040070
:1007D0000A000188408800040843A188FFF7D2FF7F
:1007E00010BD0120704710B504000021FFF7EEFF97
:1007F0002100FFF7C2FF10BD30B504000120050045
:100800008D4029000500954098402A0003002000F3
:100810000A43D1B2984322408A4201D11C43E0B23C
:1008200030BD000010B504001300044A10780A001F
:100830002100FFF7E1FF00F0D9FC10BDAC0D002056
:1008400010B501F0DBFC10BD10B501F0DBFC10BDF4
:100850007047000010B500F045FCFFF7F9FF0248B3
:1008600005F0DFFA10BDC046A861000010B5FFF723
:10087000F1FF04F0D1FA10BD10B5FFF7EBFF04F063
:10088000DFFA10BD70B501210500FFF79FFF2900B9
:10089000040003F073FF002842D02900200003F079
:1008A0008BFA00283CD029002000FFF761FF0028C8
:1008B00036D02900200004F061F8002830D029004B
:1008C000200003F0DBFB00282AD02900200003F0E1
:1008D000C9FF002824D02900200003F023F90028B4
:1008E0001ED0AB78002B0CD0144B9C421FD00CD8E0
:1008F000134B9C4218D0134B9C4213D0033B9C4299
:100900000CD02800FFF732FF0BE00F4B9C4211D0B8
:100910000E4B9C42F5D101F0EBF8F2E7FFF7A6FF92
:10092000002070BD01F0FAF8FFF7A6FFF8E701F02C
:10093000EBF8E6E701F0EDF8E3E7C0465A7C00008B
:10094000017C0000037C00005B7C00005C7C0000FC
:1009500010B504F0C6F900F027F802F035FF10BD1D
:1009600010B500F026F803F033F804F0BFF910BD1D
:10097000704710B5FFF7FCFF10BD012070477047AE
:1009800070B5051CFFF7F9FF041E02D0281CFFF705
:10099000F6FF200070BD704710B50400FFF7E9FFB7
:1009A000201CFFF7EDFF10BD10B50020FFF7F4FF8E
:1009B00010BD10B504F03CF8FFF7EEFF10BD0000CD
:1009C00010B504F035F8074B04001A78824207D0BE
:1009D000187004F0D7F9044B18602000FFF7DCFF13
:1009E00010BDC046A30D0020A40D002070B5030C5F
:1009F00086B0DBB2009001918DB2002B01D000F0E7
:100A0000B7FF162300226B441A80009B04AC0493AA
:100A10006B469B8802AE21003000A3800632FFF7B0
:100A200057FD002D08D03288064B9A4204D0200092
:100A3000FFF7D7FE002803D00498616800F0C2FEDB
:100A400006B070BDFFFF000010B5008800F098FCF4
:100A500010BD10B5002904D001F040FD01F008FEE2
:100A600010BD01F091FDF9E710B5041E13D08228E6
:100A700012D103F0DDFF80070DD4392000F016FFFE
:100A800000F0A6FFFA20400105F0CBF9392000F074
:100A900017FF00F09DFF10BD83280DD103F0C8FFA4
:100AA000C007F8D4532000F001FF00F091FF2A485E
:100AB00005F0B7F95320EAE784280DD103F0B8FF19
:100AC0004007E8D4472000F0F1FE00F081FF224803
:100AD00005F0A7F94720DAE7031FDBB2A02B0FD8F8
:100AE0001E4B0100186804F023F8002804D02000F1
:100AF00000F0E6FE00F06CFF200000F0D7FEC8E733
:100B000003002033DBB2072B07D807230340012063
:100B10009840C0B200F006FFBBE703005B33DBB2D6
:100B2000022B04D8243CA0B203F0B2FFB3E70300C9
:100B30005833DBB2182B05D8094A5B00985A03F0EA
:100B4000C1FFA8E703003333DBB2122BA3D801F0B7
:100B5000C5FC01F08DFD9EE710270000000C002071
:100B60003676000810B500280FD082280ED103F089
:100B70005FFF800709D5392000F098FE00F028FFBC
:100B8000392000F09DFE00F023FF10BD83280AD11C
:100B900003F04EFFC007F8D5532000F087FE00F0A9
:100BA00017FF5320EDE784280AD103F041FF4007E7
:100BB000EBD5472000F07AFE00F00AFF4720E0E77F
:100BC000031FDBB2A02BDCD903002033DBB2072BE1
:100BD00007D80723034001209840C0B200F0AAFEC6
:100BE000D1E703005B33DBB2022B03D8002003F014
:100BF0004FFFCAE703005833DBB2182B03D800209D
:100C000003F060FFC1E703003333DBB2122BBCD823
:100C100001F0BAFC01F02CFDB7E770B505000C003F
:100C2000FFF722FF002C03D12800FFF79BFF70BDC8
:100C30006420013C05F0F5F8A4B2F3E7502110B5AB
:100C4000392800D00021FFF7E8FF10BD10B50028BB
:100C500003D000F067FE00F0BBFE10BD10B5002809
:100C600003D000F067FE00F0B3FE10BDF0B585B014
:100C700087790C1C8578029000F044FE23043F091C
:100C80000190039300281ED00195002D1BD00F2248
:100C900023041B0E9343402B06D023000022203355
:100CA000DBB20192072B0ED90022A84B01925B7890
:100CB0005B0708D5022000F0E7FE00F023FE0123C9
:100CC0004340DBB201932304180F0B286AD8FFF7C7
:100CD00099FA0C000C003E003E00C300D7006900EA
:100CE0006900DC003F015201520126052304360F42
:100CF0001B0E0F2B00D93601E4B2002D12D0002EAE
:100D00000BD023002033DBB23000072B01D9002C9D
:100D100005D100F007FE00F05BFE200040E000F08F
:100D200017FEF8E72000FFF71DFF002E3AD0230042
:100D30002033DBB23000072B01D9002C02D100F0A8
:100D4000F9FD01E000F00CFE00F042FE2AE00F2267
:100D5000230426051B0E360F9343202B00D03601AB
:100D6000E4B2002C0ED0012C60D0002D67D0002FF3
:100D700060D0029B9B79DA07CFD50F221340029AED
:100D8000937157E0714B5B785B072BD4002D22D019
:100D9000002E04D0300000F0C5FD00F019FE002048
:100DA000FFF762FE019B002B13D000F0A3FD01238F
:100DB00002001A4018420CD1029B9A7000F092FD7A
:100DC00000F028FA029800F049F900F08BFD00F0DD
:100DD0002DFA05B0F0BD2800FFF7C4FE002EE1D0CB
:100DE0003000ACE7002D11D0002F06D100F0C6FD79
:100DF0003043C0B2FFF72AFFD4E7012FF6D100F04D
:100E0000BDFD3043C0B200F0C5FDCBE7002F05D1DA
:100E100000F0D2FD3000FFF721FFC3E7012FC1D062
:100E20003000FFF71BFF00F0C7FDBBE7002D03D02C
:100E3000052FB7D83000DDE7042FB3D8EAE7002F3D
:100E4000E8D00120392C01D1FA20400104F0E9FF5B
:100E50002000FFF787FEA5E72005800F09D00128B5
:100E6000A0D10020854201D0A005800D03F02AFE0C
:100E700098E7002D01D0A005800D03F009FE91E751
:100E80002900E0B2FFF7E5FD8CE723049B019B0FEF
:100E90002BD1002D1BD1102123065B0F9B002207B5
:100EA000DBB2120F9A400800D2B22040214203D098
:100EB0000F209840C043C0B22405A40F1043022C59
:100EC0000DD0032C0ED0012C06D000F075F903F0E4
:100ED000AFFDFFF761FD65E700F064F9F7E700F0AB
:100EE00075F9F4E700F059F9F1E7A3059B0FDAB2C1
:100EF000002D1ED0DB07EAD5102123065B0F9B00D7
:100F00002207DBB2120F9A400800D2B220402142E1
:100F100003D00F209840C043C0B22405A40F104353
:100F2000022C0CD0032C0DD0012C05D000F0A0F920
:100F3000CDE7012ACBD9DFE700F090F9C7E700F051
:100F4000A1F9C4E700F052F9C1E7C046142500201A
:100F5000E6B22405240F002D06D0200000F05AF937
:100F60003000FFF773FEB2E73000FFF777FE200096
:100F700000F05CF9ABE7E6B23000F038042840D866
:100F8000FFF736F903240F162000002D06D0042F9A
:100F90009DD8E004C00E00F055F998E7052F96D8CB
:100FA000F7E7E004C00E002DE2D100F033F98EE740
:100FB000002D04D0E004C00E00F025F987E700F012
:100FC0001DF984E71C4B5B785B0704D4E004C00E7A
:100FD000002DCDD0E9E7002D09D0E404E40E200077
:100FE00000F018F90321200000F02AFD6FE701202E
:100FF00000F04AFD012F00D869E7022000F044FD0F
:1010000065E7002D08D0002F03D03000FFF72CFD3E
:101010005DE7E004C00EC8E7002F0AD00120392E9A
:1010200001D1FA20400104F0FCFE3000FFF79AFDE8
:101030004DE7E004C00E9BE71425002070B50400C6
:101040002188807800F0A6F9051C00F025F900F051
:10105000A3F8291C2000FFF709FE70BD13B504009A
:10106000010006226846FFF733FAA388002B17D049
:101070006B461A880E4B9A4212D02000FFF702FCF2
:1010800000280ED100F03EFC002809D0A378002BE8
:1010900006D0084B5B785B0702D5022000F0F4FC19
:1010A00013BD2000FFF7CAFF2000FFF79CFBF7E706
:1010B000FFFF00001425002010B5002003F0E8FC1D
:1010C000002003F0FFFC00F053FC00F081FC01F075
:1010D000E9FA01F0CDFA10BD10B500F0FBFBFFF707
:1010E000EBFF10BD10B500F02DFCFFF7F5FF10BDB4
:1010F000C2B20004030F062B18D00F21062B0ED806
:101100000E3300200B40012B08D80120F02A05D017
:1011100007D80020E72393424041C0B2704706330E
:10112000EFE7F43A100043425841F6E70120E72A7E
:10113000F4D9F13A53425A41D0B2EFE713B5040063
:10114000010006226846FFF7C3F9A388002B0AD0E6
:101150006B461A88054B9A4205D0208800F010F99A
:10116000FFF7C6FF16BD0020FCE7C046FFFF0000EA
:1011700082B002B0704782B002B07047704710B5BD
:10118000FFF7FCFF10BD000010B5FFF7F8FF014BA3
:10119000187010BDAD0D0020704710B5FFF7F4FFBB
:1011A00010BD000010B5034B1B781843FFF7ECFF90
:1011B00010BDC046AD0D002010B5034B1B78184084
:1011C000FFF7E2FF10BDC046AD0D002010B5034B88
:1011D0001B785840FFF7D8FF10BDC046AD0D00206A
:1011E000704710B5FFF7FCFF10BD000010B5FFF70A
:1011F000F8FF014B187010BDAC0D002010B5002099
:10120000FFF7F4FF10BD0123834010B5D8B2FFF7FC
:10121000EDFF10BD0123834010B5034A1078184339
:10122000C0B2FFF7E3FF10BDAC0D002001238340E7
:1012300010B5034A10789843FFF7D8FF10BDC04699
:10124000AC0D00200123834010B5034A10785840AC
:10125000C0B2FFF7CBFF10BDAC0D002010B5034BA3
:101260001B781843FFF7C2FF10BDC046AC0D00202D
:1012700010B5034B1B781840FFF7B8FF10BDC046F0
:10128000AC0D002010B5034B1B785840FFF7AEFFA4
:1012900010BDC046AC0D00207047032370B5012679
:1012A000CC086343D2180723350019408D40002134
:1012B000EDB20300CB40545C33405B4263402B40B3
:1012C0005C40545401310329F3D170BD30B507247B
:1012D000032300220440C008434301251000C9181D
:1012E0008B5CE3402B40934001321843C0B2032A89
:1012F000F6D130BD07B5030401AA10801B0E08000B
:10130000002B05D11178052902D8024AFFF7C5FF45
:1013100007BDC046A90D002007B5030401AA10802F
:10132000180E07D11378052B03D818000249FFF7D0
:10133000CDFF0EBD0020FCE7A90D0020F7B5072466
:1013400001270D4A0D4B12781B7801AE1A433080ED
:101350000092009B23413B4204D1013CF9D200257D
:101360002800FEBDE5B22800316800F023FE80B2FF
:101370000128F2D0F4E7C046AC0D0020AD0D0020EE
:1013800007B501AB18800198FFF7D8FF019900F06D
:1013900011FE0EBD13B501AB19800E4B1B78002B4F
:1013A00003D00198FFF7ECFF16BD00280CD0019880
:1013B000FFF7C4FF040001000198FFF79BFF200026
:1013C000019900F0F7FDEFE70198FFF7A5FF040092
:1013D000F5E7C046A80D002070B507250B4B1C781B
:1013E0000B4B1B78A34200D170BD0A4BE200D15ACF
:1013F0009B1858889A8800040843D9880134090446
:101400001143FFF7B8FE2C40EAE7C046AE0D0020BE
:10141000AF0D0020B00D0020064B10B558881A887B
:10142000D988000410439A8809041143FFF7A3FEEA
:1014300010BDC046F00D0020F0B5244B85B09A7960
:101440000F2A3DD89A78002A3AD0214A1478214AA6
:10145000127801925A789E8817001B780093019B9E
:101460009C422DD0194D0622290002A8FFF730F822
:10147000002E27D002AB1A88174B9A4222D0174A67
:10148000E10053185878B8421CD18A5C00998A420E
:1014900018D19A78002A15D19A88921B92B2C72A3D
:1014A00010D80F201021AA7902400A43AA719A7914
:1014B0000240114328009971FFF7D0FDFFF78CFF20
:1014C00005B0F0BD072301341C40C8E7F00D002033
:1014D000AE0D0020AF0D0020FFFF0000B00D00207A
:1014E000F0B504008BB00100062206A8FEF7F0FF5D
:1014F0002378AF4D0593637808AE0493A378062252
:101500000093A388290030000193FEF7E1FFAB8828
:101510000293002B00D13AE13388A64FBB4200D1A1
:10152000E9E0AB780393002B00D1E4E0019B029942
:10153000AA795B1A9BB2C72B00D9B1E00F2A00D958
:1015400072E0300006222900FEF7C2FF3388009EB9
:10155000BB4213D022889A4210D1331E1DD1AA79E2
:101560000F331A4001331343AB71FFF755FF2800C7
:10157000FFF774FDAB79A371002652E0059A08AB22
:101580001A70049A5A70019A002A03D01B88894A5B
:10159000934208D1009B002BEED00123844A91791D
:1015A0000B439371E8E7009B002BF6D1824A834BF3
:1015B00015781B78824AAB4212D10698FFF7E0FEFD
:1015C000C3B200040F21020F012A1BD8000E0142F2
:1015D00001D0002B25D02033DBB2072B21D915E019
:1015E000D80011184F78BC46049FBC4506D1805CDA
:1015F000059FB84202D189780029BDD10721013366
:101600000B40D8E70E320A40012A04D92000FFF728
:1016100025FD039E05E0000E0142DCD0A2790F2AD1
:10162000D9D830000BB0F0BD062229003000FEF7FB
:101630004FFF3388BB4210D022889A420DD1009BC5
:10164000002B0AD1AB792000A371FFF707FD082218
:1016500021002800FEF73CFF1EE02000FFF76EFD92
:10166000002800D187E0009B002B00D183E0504A86
:1016700093791F2B09D9128808A802800022827052
:10168000019A83718280FFF7E9FC08222100484813
:10169000FEF71EFFFFF7D0FEFFF7BEFE0126C0E7F4
:1016A0000F2A0ED807990698FFF762FD2800FFF76A
:1016B000D5FC082200212800FEF75CFFFFF7ACFEF6
:1016C0005AE7062229003000FEF702FF3388BB42AA
:1016D000C3D02A8823889A42BFD1009B002BBCD15B
:1016E000AB792000A371FFF7B9FC0822280000990C
:1016F000FEF740FFD2E72E4F062239003000FEF7FA
:10170000E7FE32882B4B9A4241D0BE78002E3ED164
:10171000019B02995B1A9BB2C72B30D8009B002B10
:1017200029D0238893421DD1BB79DA0714D40F2B1B
:1017300012D90F21A3718B43F02B06D0A3791A097C
:10174000013212010B401343A3712000FFF786FC06
:101750000822210038007DE7082221003800FEF72A
:10176000B7FE9BE72000FFF7E9FC00288DD101239D
:10177000BA791343BB712000FFF770FC8EE706981F
:101780000799FFF7F5FC08223100380094E7009B29
:10179000002BF0D02000FFF7D1FC0028EBD008226E
:1017A00021002800FEF794FE2800FFF74DF971E7AD
:1017B000F00D0020FFFF0000AF0D0020AE0D002057
:1017C000B00D0020F0B589B002AE0290300071601B
:1017D000FFF786FE06AC0500B788002814D00298F3
:1017E0000690A780002F06D022882B4B9A4202D069
:1017F0007168FFF7C0FC0726284D294B28781B7815
:10180000834230D109B0F0BD230004A806CE06C340
:1018100006222100FEF75CFE204A214E0192337819
:101820001278002FE7D002A908891B498842E2D02C
:1018300007215F1C0F4097420AD01A48DB0008229C
:101840002100C018FEF744FE3770FFF7C5FDD2E750
:10185000FFF748FC019B08222900134835701D70D2
:10186000FEF788FEC7E70F4CC0000019FFF738FEEF
:101870000028C7D02B78DB001A5BE4186088E18869
:10188000A3880004090419431043FFF774FC2B7864
:10189000013333402B70AFE7FFFF0000AE0D002097
:1018A000AF0D0020B00D0020F00D002010B5034B4F
:1018B0000100186803F0A2F910BDC046000C00201A
:1018C00010B5034B0100186803F0ACF910BDC04619
:1018D000000C002010B5024B186803F0B7F910BDDA
:1018E000000C00200020024B1856C010C0B27047F8
:1018F000180E0020024B1878072318407047C04686
:10190000180E0020034B187807231840431E9841F7
:10191000C0B27047180E0020014B18787047C046BF
:101920003B0E0020024B1A78104318707047C046D7
:101930003B0E0020024A1378834313707047C04661
:101940003B0E00200022014B1A7070473B0E002016
:10195000024B1A78104318707047C0463A0E0020A8
:10196000024A1378834313707047C0463A0E002032
:101970000022014B1A7070473A0E0020014B187874
:101980007047C046190E0020704710B5FFF7FCFFE6
:1019900010BD0000064B10B55B785B0706D5054B04
:1019A0001A78824202D01870FFF7EFFF10BDC046D0
:1019B00014250020190E002010B5044B1A78002AB7
:1019C00003D000201870FFF7E0FF10BD190E0020B3
:1019D00070B5134B134A1B781278134C1343134AF8
:1019E000206812780370002A07D01343037003F0B5
:1019F00083F8002801D0FFF7DFFF24680C4D202278
:101A000029002000FEF740FD002807D020222100F9
:101A10002800FEF75DFD200003F014F870BDC046FD
:101A20003B0E00203A0E0020000C0020190E002072
:101A3000F80D0020704710B5FFF7FCFF10BD000047
:101A40000A4A0B00527810B552070CD5084CC10059
:101A500019432170FFF7DEFB00202056C010C0B2F2
:101A6000FFF7E9FF10BDFFF7D5FBFBE714250020CA
:101A7000180E0020002010B5024B1870FFF7DBFF96
:101A800010BDC046180E0020002310B50A4AD356D8
:101A90001900814348B2107042070CD1DBB2834277
:101AA00009D0064B5B785B0705D5C010C0B2FFF7C5
:101AB000BDFBFFF7DFFF10BD180E0020142500202E
:101AC0000A4A10B553785907C90F81420CD0012139
:101AD0000840033180008B4303435370108800F0AB
:101AE00044F80220FFF7D0FF10BDC04614250020A7
:101AF000044B10B5587801234007C00F5840FFF73A
:101B0000DFFF10BD1425002010B50120FFF7D8FF1E
:101B100010BD10B50020FFF7D3FF10BD10B501F0C8
:101B2000CFF80020014900F001FF10BDFFFF0000C9
:101B3000002010B500F0BBFE034B020000209A42CB
:101B400001D102F0DBF810BDE7FE000010B5022065
:101B500000F0A0FE10BD10B5032000F09BFE10BDEC
:101B600010B5042000F0A3FE10BD10B50100042044
:101B700000F0DCFE10BD10B501000F2000F0E2FE09
:101B800010BD10B50100132000F0DCFE10BD10B533
:101B90000020FFF7F6FF10BD10B50020FFF7EBFFA8
:101BA000FFF7F5FF10BD000010B501F089F8002027
:101BB0001F4900F0BBFE0021022000F0ABFE002117
:101BC000032000F0A7FEA02100241A4B04204901A5
:101BD0001C7000F0ABFE2100062000F09BFEFF21F0
:101BE000072000F097FE2100082000F0ABFE210046
:101BF0000D2000F08FFE2100182000F0A3FE210030
:101C0000172000F087FE21001C2000F09BFE210021
:101C1000202000F08BFE2100182000F093FE200011
:101C200002F07FF802F0A7F8FFF7B6FF10BDC0463C
:101C3000E7FE0000AD0D002010B5FFF7B5FF10BDA9
:101C400010B501000E2000F065FE10BD10B503F0C8
:101C500099F8024B1860024B186010BD480E002026
:101C6000440E002010B503F08DF8024B1860024BB3
:101C7000186010BD480E0020400E002070477047CD
:101C800010B5FFF7FCFF10BD704710B5FFF7FCFF64
:101C900010BD000010B5054800F06EFA01F00CF818
:101CA000FFF7ECFFFFF7ECFF10BDC0467121000805
:101CB0000120704710B5FFF7FBFF10BD704770475C
:101CC00010B5FFF7FBFFFFF7FAFF10BD10B500F0EE
:101CD00075FAFEF760FE10BD10B503F04FF802F084
:101CE00059F802F03FFB00F00BFBFFF7EFFF01F0AC
:101CF00027FE8022054B524219780A431A70188831
:101D0000FFF733FFFFF7C1FF10BDC04614250020C9
:101D1000F0B585B000F006FB334F00203C7800F0B2
:101D200075FA844225D103F065F8304D04002B8804
:101D3000834210D0012302AA5B42138000239370D8
:101D400003F058F8012302AA0343938002980399F1
:101D5000FEF74CFE2C8001F04DFE02F035FB002812
:101D600001D0FFF77FFF00F0C7FCFEF729FE05B0AA
:101D7000F0BD1F4B1B789B0701D500F04DFAFFF714
:101D800099FF0190002000F041FA3B78040098424E
:101D900026D0002501264340DBB20093009B1E4263
:101DA00017D0019B002B14D002AB1D70002302AA98
:101DB0005370330023405A1E934102AA937003F0DC
:101DC00019F8012302AA0343938002980399FEF7AE
:101DD0000DFE01357600EDB2F6B2062DDED13C7077
:101DE000FFF734FFB7E7C0463E0E00203C0E002050
:101DF0004C0E002070B500F0E7F8A4230400DB01CE
:101E0000984234D2A023DB01984200D38DE0DF2832
:101E100014D8CC283ED8A72809D8A42861D80128EE
:101E200003D0031F9BB2A02B06D8201C70BD03005B
:101E3000A83B9BB2182B58D90024F6E78023DB017E
:101E400098420ED28025AD01A84278D2E728ECD97D
:101E5000F822431EFF3B9BB2520193429B411C4020
:101E6000E3E7A0243C4B240203401C43DDE7A52309
:101E7000DB0198421ED2394B984243D8384B9842E6
:101E80000BD90321012201408A40C3065B0F5B018D
:101E9000344C13431C43A4B2C7E7334B98422CD8AD
:101EA0000322C4B2A3081440023AA2405B012F4CA3
:101EB0001343EFE72E4B984208D81F202D4B2040AC
:101EC0009C4229D82C4C00020443AEE72B4BC3188C
:101ED0009BB21F2BB0D8F82304025B011C40284B97
:101EE000C3E78023243CDB01D4E75834254BE4B21C
:101EF0006400E35A8824E401B7E71F230340224C1F
:101F00001B02B2E70321012201408A40C3065B0F96
:101F10005B011E4C1343BDE700F0D6F8F823802484
:101F200000025B011840A401CEE71F20204000F012
:101F3000CBF8E405240F2402154B0443AAE7C004A0
:101F4000C00E00F0C1F8F82300025B011840E4B2B3
:101F500004432C4369E7C046FF0F00005F520000B6
:101F60003F520000008CFFFF1F520000008DFFFF5A
:101F7000BF5200009F520000F4A0000040ADFFFFE0
:101F8000F0A0000068760008F1A00000008AFFFFC2
:101F90000090FFFF07B501AA0B04118000211B0E62
:101FA0008B4205D11278052A02D802F0DEFA010030
:101FB00008000EBD07B501AB19800199FFF7EAFFD4
:101FC000FFF718FF0EBD0000030010B5E72808D882
:101FD000DF2808D8312861D00ED8292855D02A28E2
:101FE00062D0180010BDE0380728FAD8FEF7F6F8DE
:101FF00018F9252A38F93F44392808D0822806D014
:102000003528EED12F4A12789206EAD506E02D4AFD
:102010001178890750D152781207E2D52923E0E7D9
:102020000121284802780A4236D140780842D8D0A7
:10203000E323D206D5D50023D3E7224A12785107ED
:10204000F6D4CEE71F490A78500733D44978C90738
:1020500032D410210A4051424A4152421340C0E753
:10206000184A51788907BCD51278E723E1E7154A69
:1020700012781107F9D4B4E712490A7810071DD471
:1020800049788907E5D5E423ABE70E4A117889063C
:1020900016D452781207A4D53923A2E7094A127838
:1020A00052069ED52A239CE7064A1278520698D5F6
:1020B000312396E7E22394E7E02392E7E62390E7D3
:1020C00035238EE71425002030B5042427490A78EB
:1020D000224205D018230340082B27D198432043E0
:1020E000130708D51824050014232540A54225D13F
:1020F000A843C0B2184301244978214206D01823CE
:102100000340082B21D19843C0B22043890708D54A
:102110001821040011230C408C421FD1A043C0B2EF
:102120001843D20601D5E723184030BD14230340DD
:10213000042BD5D1984304331843D1E70340142B23
:10214000D9D19843C0B22043D5E711230340012BD6
:10215000DCD19843C0B207331843D7E70340112BB3
:10216000DFD19843C0B20843DBE7C0461425002006
:102170000020704700207047014B18607047C04630
:10218000040C002010B5FFF7C9FC10BD10B500F01D
:10219000C9F8FA20800003F044FE00F0C3F80020E4
:1021A00000F034F8C00703D5FFF7ECFF02F034FE6F
:1021B00010BD10B5FFF7EAFF10BD000010B5FFF726
:1021C000B7FC002801D1FFF737FDFFF7BFFC084B34
:1021D0001870FFF7C5FC074B1880FFF7EAFFFFF701
:1021E000BAFCFEF7DAFF044B1878FEF7FAFF10BDD1
:1021F0004C0E002014250020AC0D002010B5FEF779
:102200000DFA10BD10B5FEF70BFA10BD014B185CAE
:102210007047C04617250020704710B5032003F013
:1022200000FE10BDC046C046C046C046C046C046BF
:10223000C046C046C046C046C046C046704710B5FE
:10224000FFF7EBFF10BD10B572B60F23020001219E
:102250001A4091409843202204F09DFC62B610BDC4
:10226000902070B5C005FFF7EEFF054C054D2068C6
:10227000431C01D0FFF7E7FF0434AC42F7D170BD37
:102280009C760008B4760008F7B50C00019072B691
:10229000902601220125F6051100300004F07BFC98
:1022A000758362B6FFF7BEFF2A000621002594461B
:1022B000124E30680023471C09D003000F27BB4390
:1022C0001B693840C34060460340013B134001395D
:1022D0001D435200C9B2EDB2D2B204360029E8D192
:1022E0009020C005FFF7AFFF29004B1E9941200049
:1022F000C9B2FFF7A4FF019B1D55F7BD9C760008EE
:1023000010B5FFF7ADFF0022044B01201A70044BFB
:102310001A7000F02BF8FEF793FA10BD1725002075
:102320001625002013B56A460D4B00211B7801A825
:102330001371FFF7A9FF6B460A481A7901788B1AC7
:102340005C1EA341DBB2914200D00270012206491B
:1023500000F00EF80400FEF777FA200016BDC04624
:102360009A7C0008162500201725002070470000E1
:10237000F7B506000D00134F0192002B05D0012385
:102380003B7002F0FFFC104B18603C78002C02D12F
:1023900000242000FEBD0C4B186802F037FD042815
:1023A000F6D931002800019AFEF76EF8002807D010
:1023B00031002800019AFEF78BF800233B70E8E714
:1023C0000400FAE7540E0020500E002010B503F070
:1023D00095F8FFF781FC03F0A7F810BD10B503F0E6
:1023E000ABF8FFF795FC03F0C5F810BD10B502F08F
:1023F0008FFC03F07FF8FFF74DFCFFF7E7FFFFF7D7
:10240000EDFFFFF75DFCFAE710B5164B1B78DA0716
:102410000AD5154B1B785B007F20834203D87E389A
:10242000002B00D0D8B210BD9A0703D50E4B1B78F5
:102430009B00F1E75B0703D50B4B1B78DB00EBE759
:102440000A4B187800280BD0094B1978064B1B78DB
:102450008842F3D25843C000FDF724FF83B2DBE784
:102460000823DFE75C0E00200D0C00205B0E00202F
:102470000C0C002010B5154B1A7801231A4207D016
:10248000134B1B789B080120002B0ED0D8B20CE018
:10249000910703D50E4B1B785B08F4E7520705D56F
:1024A0000B4B1B787F208342EDD910BD094A107871
:1024B0000028EBD0084B1978054B1B788842F1D2E5
:1024C0005843FDF7EFFE83B2ECE7C0465C0E0020F8
:1024D000090C00205A0E0020080C00200300CD3803
:1024E00010B5122810D8FDF783FE0A10141A3232E4
:1024F0003232323232321E23282E3C424600FFF75F
:1025000083FF1F4B4042D87010BDFFF77DFF1C4B6F
:10251000F9E7FFF779FF1A4B40429870F4E7FFF7AD
:1025200073FF174BF9E7FFF7A5FF154B1871EBE7A2
:10253000FFF7A0FF124B4042F8E7FFF79BFF104B5D
:1025400040425871E0E7FFF795FF0D4BF9E7012294
:10255000D13B9A400A4913000A0049780B43537053
:10256000D2E70123074A11780B431370CCE7054AE1
:1025700002231178F8E7034A04231178F4E7C046F0
:102580005D0E00205C0E002030B5042105220224DF
:102590000325334B59569A561C575D57CD2814D1F5
:1025A000002D01DA0022DA70D9789A780A4351B204
:1025B000002A01D12B4A11701A795B7913435AB260
:1025C000002B01D1284B1A7030BDCE2802D1002D2E
:1025D000E8DCE9E7CF2804D1002CE5DA00229A7084
:1025E000E2E7D02802D1002CF8DCDDE7D92804D1BD
:1025F0000029D9DD00221A71D6E7DA2802D1002994
:10260000D2DAF7E7DB2804D1002ACDDA00225A71AA
:10261000CAE7DC2802D1002AF8DCC5E7D1380E2849
:10262000C2D8FDF7DBFD0808080808080808C1C182
:10263000C1C10E141800012181405A788A435A7092
:10264000B2E7012009490A7882430A70ACE70749DA
:1026500002200A78F8E7054904200A78F4E7C04622
:102660005D0E00205B0E00205A0E00205C0E002044
:1026700010B502F0BFFB030007488278C1780A4317
:1026800001D0064A1380027941790A4301D0044AF5
:10269000138002F0F1F910BD5D0E0020580E0020ED
:1026A000560E0020062210B500210548FDF762FFF6
:1026B0000023044A1370044A1370044A137010BDB7
:1026C0005D0E00205B0E00205A0E00205C0E0020E4
:1026D0000222825603000120002A0BD103229A56BF
:1026E000002A07D104229A56002A03D10520185641
:1026F000431E98417047000037B55D4C062221000B
:102700006846FDF7E5FE00236A46A370E370237177
:1027100063716B46D2789B7813430BD0554B188866
:1027200002F06DFB54490B78002B28D0534A1278E5
:1027300090422DDC6B466A461B79527913430BD0CD
:102740004F4B188802F05BFB4E490B78002B51D0A1
:102750004D4A1278904256DC6946200002F08AFA0F
:10276000002804D12000FFF7B3FF002801D0FFF7B5
:102770007FFF062269462000FDF7AAFE37BD434AC7
:1027800015780A226A439042D4DD01330B7001E0D0
:10279000FF2BFAD16B4602255D57002D07D0FFF7BE
:1027A00033FEFF23002D00DDFE3B4343A3706B4649
:1027B00003255D57002D07D0FFF726FEFF23002DD0
:1027C00000DDFE3B4343E3700223E356002BB1D010
:1027D000032161560029ADD0B52253431B1200D10D
:1027E00001334A43A370121201D0E270A2E7012321
:1027F000E3709FE7264A15780A226A439042ABDDD0
:1028000001330B7001E0FF2BFAD16B4604255D57B5
:10281000002D07D0FFF72EFEFF23002D00DDFE3B2D
:10282000434323716B4605255D57002D07D0FFF705
:1028300021FEFF23002D00DDFE3B43436371042393
:10284000E356002B00D187E705216156002900D10E
:1028500082E7B52253431B1200D101334A4323714F
:10286000121201D0627177E70123637174E7C046E9
:102870005D0E0020580E00205B0E00200E0C002084
:10288000560E00205A0E00200A0C00200F0C0020CB
:102890000B0C002007B500236A46D3716B4601007C
:1028A0000122D81D00F010FA6B46D8790EBD07B58D
:1028B00000236A46D3806B4601000222981D00F077
:1028C00003FA6B46D8880EBD002307B5010001A8A6
:1028D0000422019300F0F8F901980EBD07B56A468D
:1028E0000300D01D01700122190000F02AFA07BD73
:1028F00007B56A460300901D01800222190000F00E
:1029000020FA07BD07B504220191010001A800F0DB
:1029100018FA07BD70B50D000400FFF7BBFFA84211
:1029200003D029002000FFF7D9FF70BD70B50D005E
:102930000400FFF7BCFFA84203D029002000FFF7E6
:10294000D7FF70BD70B50D000400FFF7BDFFA842B2
:1029500003D029002000FFF7D5FF70BD10B500F0AF
:1029600095FA094C094800F04DFA094800F04AFA76
:10297000200000F047FA074800F044FA00F096FA09
:10298000054B1C6010BDC04600F0010800E00108C6
:1029900000E8010800F80108640E002001239843B4
:1029A0000C4B70B5C5182B880B4A002693420FD1EB
:1029B0000A4A0536145AE443A4B29C4208D000F0F7
:1029C00065FA2100280000F03DFA060000F06EFADA
:1029D000300070BD00E00108FFFF0000680E00201D
:1029E00070B50526FFF7BAFF0B4C00F04FFA0B4D00
:1029F0002988002907D0C943200089B200F022FAB3
:102A0000052800D00600064B023402359C42EFD167
:102A100000F04CFA300070BD00E00108680E0020A4
:102A200000F00108F8B51B4B1C5A012C0FD80222EC
:102A3000194D63031D43ADB2184B194E9B1A3268F2
:102A40009A420AD9FFF7CCFF04002000F8BDE02528
:102A50008038042280B22D02EEE7470800F016FA13
:102A600030682F43831C3900336000F0EBF9E0231A
:102A700007001B029D4209D1E143306889B2831CE3
:102A8000336000F0DFF90400052800D13C0000F0BD
:102A90000DFADAE7680E00200080FFFF0000020850
:102AA000640E002070B50D4D0D4B2A6804009A424B
:102AB00004D9FFF795FF0400200070BD00F0E6F98F
:102AC000084B2868195D24022143831C89B22B60BE
:102AD00000F0B8F9040000F0E9F9EDE7640E002019
:102AE000FFFF0108680E0020234AF0B51400234BB5
:102AF000234819880233C943118002328342F8D136
:102B00008022C025D20194460127ED011A881D4973
:102B10008A4209D011B21C4800290ADB110A62540A
:102B20001E00B31C8342F1D98020184A4001136073
:102B3000F0BD11002940A94211D19E1C864218D82F
:102B40005988C94389B20029EBD0114B52001A4071
:102B5000803280235B019A42E3D2A152E1E76146D1
:102B60000A42DDD10A4E51135200324039401E0054
:102B7000EFE73300D8E7C046680E002000E0010808
:102B800000F00108FFFF0000FFFF0108640E0020B5
:102B9000FE3F000010B5FFF7E1FEFFF7A5FF10BDF7
:102BA000802310B55B01040007209C4210D20C4B1F
:102BB0000020E2181B5D8B420AD020001170FFF745
:102BC000EDFE002804D17F2C03D82000FFF76AFF18
:102BD00010BD012320009843FFF724FFF8E7C0460B
:102BE000680E00208023F7B55B0104000E00072566
:102BF000984233D2012305001D4018420CD0C9B2BF
:102C0000FFF7CEFF01340500310AA0B2FFF7C8FF7D
:102C1000052823D0050021E0134B1F5AC218B942E2
:102C20001CD01180FFF7BAFE051E17D17F2C17D8D4
:102C30000521FAB2F3B201919A4203D02000FFF7C6
:102C400031FF01903F0A360AB74206D00134A0B2E4
:102C5000FFF728FF0500052800D1019D2800FEBDD3
:102C60002000FFF7DFFED5E7680E0020802203007A
:102C70005201FF20934201D2014AD05C7047C04606
:102C8000680E0020084B98420BD8084BC318C207A7
:102C900005D5074A125C187812021043704718884D
:102CA000FCE70448FAE7C046FE0F0000680E00206B
:102CB000690E0020FFFF000010B5FFF715FF10BDE3
:102CC00010B5FFF767FF10BDF0B506000C0015004A
:102CD00085B0002A0BD0CB0709D54B1C471C88B206
:102CE0000193FFF7C3FF30703E00019C013D0123BB
:102CF000370033400293631901950393019B012B25
:102D00000CD86B085B0058429D4205D04542201A02
:102D100080B2FFF7ABFF705505B0F0BD039B019A81
:102D2000981A80B2FFF7AEFF029B002B05D13880C6
:102D3000019B0237023B0193E0E73870000A78708C
:102D4000F6E7F7B506000C00151E0BD0CB0709D52A
:102D5000471C3E004B1C0178A0B20193FFF720FFF7
:102D6000019C013D2F007319DB1B012F0BD86A0852
:102D700052005342954205D05B42E018F15C80B2AC
:102D8000FFF70EFFF7BD59781A786019C01B0902CA
:102D9000114380B2FFF726FF023FE4E70122094B0F
:102DA0001000D96811420CD1D9689018490708D48D
:102DB000D9688018C90604D4DB6802301340C01AF1
:102DC000C0B270470020024037B50400FF25FFF76E
:102DD000E5FF012811D1002C01D105303EBD0023B3
:102DE00001930195019B002B03D1FFF7D7FF013C15
:102DF000EFE7019B013B0193F4E7002CEED10620A5
:102E0000ECE7000070B506000C48FFF7DDFF052871
:102E100013D102250A4C094823692B43236140231F
:102E20006661226913432361FFF7CEFF062802D0B3
:102E30002369AB4323613423E36070BDFF0F0000BF
:102E400000200240F8B5F8231B06C2180D4B050000
:102E50000E0007209A4214D81830FFF7B5FF052856
:102E60000FD10127084C1A3023693B4323612E8080
:102E7000FFF7AAFF062802D02369BB43236134234E
:102E8000E360F8BDFEFF070000200240044B1A6912
:102E9000120603D5034A5A60034A5A607047C04677
:102EA0000020024023016745AB89EFCD8023024A11
:102EB00011690B4313617047002002407FB5050A7A
:102EC000030CEDB20190DBB2002D10D1002901D02E
:102ED000284AD35C1A001C00FF210A4010000C4055
:102EE00024020B401B042043184304B070BD01AA08
:102EF0001C001678002901D01E4B1C5D0620FF2106
:102F00007043FDF7CFF955214942414376007118CE
:102F100003264E43FF22F6B23100961B531B694332
:102F2000754309122D12511A521B634361436243C8
:102F30001B1209121212DBB2C9B2D2B2E4B20628D5
:102F400016D8FDF74BF9C904070C1115C90022006A
:102F50000C00C1E7110022001C000B00BCE722009E
:102F60001C0013000A00B7E711001A002300EFE766
:102F70001A00F2E7F27700081FB50121FFF79EFF64
:102F8000FF210200030A0B40000C08400A401B020C
:102F90001A43030402481040184305B000BDC04660
:102FA000FFFF00FF704700001FB5FFF7E5FFFF219F
:102FB0000200030A0B40000C08400A401B021A439F
:102FC000030402481040184305B000BDFFFF00FF96
:102FD00013B51C006B4659709A7018700098FFF773
:102FE000E3FF020403021B0E120E62702070A37036
:102FF00013BD000010B5141CC82A01D9024A147868
:10300000E2B2FFF7E5FF10BDB47600080A4A137874
:10301000012B0AD801210B4049180B431370D378B8
:10302000C82B01D9C823D3707047492BF7D9012188
:103030000B404731F1E7C0461825002010B50820A5
:10304000FFF742FC10BD10B50400FFF7DFFF2100C1
:103050000820FFF777FC10BD10B5024B1868FFF78A
:10306000F2FF10BD1825002010B5024B1868FFF7BD
:10307000EAFF10BD18250020002210B5034B0448BC
:103080001A711860FFF7DFFF10BDC0461825002039
:103090000300FFC8034B1B78DA07D00F002A00D0CB
:1030A0005808704718250020024B1878C007C00F39
:1030B0007047C0461825002010B5054A1379022B29
:1030C00001D801331371002801D0FFF7C5FF10BDEF
:1030D0001825002010B50120FFF7EEFF10BD0000FD
:1030E00010B5054A1379002B01D0013B137100285C
:1030F00001D0FFF7B1FF10BD1825002010B5012049
:10310000FFF7EEFF10BD0000014B18797047C04675
:1031100018250020014B18717047C0461825002063
:10312000014B58787047C04618250020014B98780D
:103130007047C04618250020014BD8787047C0461C
:103140001825002010B500F0A9FD10BD70B50F4B7B
:103150000F4C1B786178DB070E4EDD0F002B06D07D
:103160000320237858433018FFF7ECFF70BD03238A
:10317000A278E0785343F3189042F1D901325D70A0
:103180001D709D70D2B20333F6E7C04618250020AB
:10319000130C0020202500200B4B70B51B78DB079B
:1031A0000AD50A4B0A4E9C78DD78032363439B19AA
:1031B000AC4202D3FFF7CAFF70BD013458701970DA
:1031C0009A70E4B20333F3E718250020130C0020B3
:1031D00020250020074B13B51B78DB0708D501AC71
:1031E0002300FFF707FFA27821786078FFF7D4FF6C
:1031F00013BDC0461825002010B50400054B027908
:103200009A5C054B99785878FFF7E4FF23790133EE
:10321000237110BDC87600081825002010B50400E1
:10322000044B0079DA789978FFF7D4FF23790133DA
:10323000237110BD1825002073B5154D04002878A2
:10324000002807D101AE3300C822FF21FFF7C0FEDE
:1032500073782B70217901290ED0022910D0002912
:1032600012D10A002878FFF797FF20790321013057
:10327000FDF762F8217173BD002229781000F2E792
:1032800000202A780100EEE7002210001100EAE792
:10329000681E0020F0B504000120314D0F00297890
:1032A00087B01600039301421FD04B0801932D4BAA
:1032B0004A089B5C2C4A81431370022917D105AD43
:1032C0003200390020002B00FFF794FEAA782978FD
:1032D0006878FFF761FF224B039A5C709F70DE7085
:1032E000002A02D01868FFF7AEFE07B0F0BD092B28
:1032F00004D006D8022B17D0062BECD1184B5C78E3
:10330000E9E7192BE7D10025019A193AD3B2024017
:103310000192164A5B08D35C0293154B1979A942B6
:1033200004D8FFF713FFD6E7EE78D4E70298684396
:10333000FCF7B8FF019AC3B2E01AC0B2002A01D16B
:10334000E318D8B203220A4B39009B785B19534328
:10335000084A01359B183200FFF74CFEEDB2DCE75E
:1033600018250020CD770008751E0020C8770008BA
:10337000130C00202025002010B503000448C2785B
:10338000817840780830C0B2FFF784FF10BDC04696
:103390001825002010B50120FFF7EEFF10BD00003A
:1033A00010B503000448C278817840780838C0B26C
:1033B000FFF770FF10BDC0461825002010B5012092
:1033C000FFF7EEFF10BD000010B50300064884783B
:1033D000C2780834211CFF2C00D9FF214078C9B2E3
:1033E000FFF758FF10BDC0461825002010B501207A
:1033F000FFF7EAFF10BD000010B50300064884780F
:10340000C278083C211C002C00DA00214078C9B2A7
:10341000FFF740FF10BDC0461825002010B5012061
:10342000FFF7EAFF10BD000010B503000648C178A1
:1034300008310A1CFF2900D9FF228178D2B24078D6
:10344000FFF728FF10BDC0461825002010B5012049
:10345000FFF7EAFF10BD000010B503000648C17871
:1034600008390A1C002900DA00228178D2B240789B
:10347000FFF710FF10BDC0461825002010B5012031
:10348000FFF7EAFF10BD10B50023FFF703FF10BDE3
:10349000F7B5050000240326144B1979A14209D879
:1034A000FFF754FEAA782B79D2071CD501335BB203
:1034B0002B71F7BD9B780E4A1B1973439B18009321
:1034C0000C4BFF20DA7801929F78FCF7EBFE60430B
:1034D0002B793900C018019A009BC0B20134FFF764
:1034E00089FDE4B2D8E7013BE1E7C046130C0020B8
:1034F00020250020182500200123F7B582781A42E4
:1035000015D100260093294C2379B34212D8FFF736
:103510001DFE009B264D012B41D12B78591EC9B2AF
:10352000002B02D121790139C9B22970F7BD0123DD
:103530005B42E6E70323A5780024AD195D431D4BEC
:103540000427ED186B461B786C702C70AC700193DF
:10355000174B18782018C3B240B2032818DD032196
:10356000FCF7EAFE48B2864209D1134BDA78997823
:103570007A4392105878D2B22B00FFF73BFD019BA3
:10358000013F1C19E4B2002FE2D10136F6B2BAE7CE
:103590000028E8DA054A12799B1858B2E3E7287840
:1035A00021790130FCF7C8FEBEE7C046130C0020AD
:1035B0006A1E00202025002018250020F8B50323CE
:1035C0000021264D264EAA78E87853439B19904255
:1035D0001AD800242979234FA1421CD8FFF7B6FD41
:1035E000214C22483B7801782278CB188A185BB2AC
:1035F00052B23B702270002A03DD2A79013A9342CD
:1036000001DB49420170F8BD01325970197099709F
:10361000D2B20333DBE72000FCF78EFE0022AB784A
:10362000BA56CB18DBB2944210DB0F4A127852B272
:1036300094420BDC032253430D48F318C27881787F
:103640004078FFF7D7FC0134E4B2C3E703225343C9
:103650000022F1184A70F2548A70F4E7130C00202B
:1036600020250020691E0020120C0020110C0020D3
:1036700018250020F8B50279202113005524534362
:10368000891A53430A00060020004A435143584315
:10369000C918FCF7C1FDC7B20323C0B2292F17D840
:1036A00043435B10DB43DCB20025184B1A79AA4276
:1036B00016D8FFF74BFD33790121154A002B02D0B4
:1036C000202B01D1FF21117012789B183371F8BDA6
:1036D000241A6343DC0FE4186410E443E4B2E3E724
:1036E00002223800154202D15332D01BC0B29A7860
:1036F000032352195343074A01359B18064AEDB27A
:1037000091782200FFF776FCCFE7C046130C00202B
:10371000100C00202025002018250020F8B50400FA
:1037200000250326134B1A79AA4207DCFFF70EFD8A
:1037300001222379013313402371F8BD9B780E4990
:103740005B1973430D4F5B18217978788C465208CA
:10375000B978AA4207DD6246002A07D0FA78FFF757
:1037600049FC0135DEE76246002AF7D00022FFF768
:103770002FFCF6E7130C0020202500201825002040
:103780000121074B10B51A788A431A701868FFF7A1
:103790005AFC0022034B5A70FFF7D8FC10BDC046FC
:1037A00018250020751E00200121054A10B5137848
:1037B0008B4313700022034B5A70FFF7C7FC10BDF8
:1037C00018250020751E00200022094B10B55A70E4
:1037D000084B1A78002A09D101321A70064B074AA1
:1037E0001B78DB07DB0F1370FFF7DEFF10BDC04651
:1037F000751E0020731E002018250020721E002058
:10380000084B10B519780B2207484908FCF702FE4F
:10381000002802D10122054B5A7001F0EBFA044B4B
:10382000188010BD18250020180C0020751E0020DF
:103830006C1E002010B5174C2378DB0725D501231B
:10384000002804D02333984201D85B330340012081
:1038500022785B00024013432370002902D02068C5
:10386000FFF7F1FB21780B220B484908FCF7D2FD4A
:1038700000280BD00022094B5A700122084BDA7045
:10388000E278A1786078FFF7FEFD10BDFFF7B8FF82
:10389000F3E7C04618250020180C0020751E0020F4
:1038A0006C1E0020054B0100187810B5400801304F
:1038B000242800D90120FFF7BDFF10BD18250020E6
:1038C00010B50120FFF7EEFF10BD0000064B010010
:1038D000187810B540080138C0B2002800D1243053
:1038E000FFF7A8FF10BDC0461825002010B5012025
:1038F000FFF7ECFF10BD10B50121FFF79BFF10BDD6
:103900000120044B10B51A78104318704008FFF7D7
:10391000F2FF10BD18250020054B10B51B78DB0702
:1039200002D5FFF72DFF10BDFFF7EAFFFBE7C0460A
:103930001825002010B50021FFF77CFF10BD000006
:1039400070B5134C2378002B20D1FEF7F1F8002836
:1039500003D1FEF771F9FFF78FFBFFF76FFB0D4DFA
:103960002860C0B2012804D8FFF786FBFFF766FB8A
:103970002860FFF74BFB0022074B28785A70C307DB
:1039800002D54008FFF7D6FF0123237070BDC04663
:10399000741E002018250020751E00200120044BF5
:1039A00010B51A78104318704008FFF7C3FF10BD18
:1039B00018250020054B10B51B78DB0702D5FFF753
:1039C000F3FE10BDFFF7EAFFFBE7C0461825002015
:1039D0000022064B10B51A70054B1B78934201D09C
:1039E000FFF7DCFFFFF70CFF10BDC046731E002081
:1039F000721E0020F8B52B4B5A78002A21D01A7875
:103A0000294B2A4C1B785B089B1ADBB2A370022A55
:103A100018D1274A274DD65CE378002B05D0002724
:103A2000E77001F0E7F9A780208001F0E3F923882F
:103A3000214AC01A80B2904203D89B1920002380EB
:103A4000A847F8BD152A21D009D8092A14D00F2A71
:103A500017D0062A0CD0FA26184DF600DCE7232AE8
:103A600018D0242A1AD0182AF5D12826144DD3E7C5
:103A7000144A154DD65CCFE7144A5B08D65C144D4A
:103A8000CAE7144A5B08D65C134DC5E7134A144DC8
:103A9000D65CC1E7134B144D1E88BDE7FA26134DC3
:103AA0007600B9E7751E0020182500206C1E002046
:103AB000C4760008F9310008FE7F0000A52F000839
:103AC00075360008C17600081D320008BE76000871
:103AD00091340008BB760008F9340008B876000875
:103AE000BD350008B6760008393200081D370008D9
:103AF00010B5002801D0904710BD8847FCE770B58D
:103B000004000D00FFF7C6FAA04206D3FFF7C2FA81
:103B1000A84202D2FFF7D4FE70BD2000FFF7EBFEF3
:103B2000FAE7000070B58D780400002D55D1FDF73F
:103B3000F3FE22232A4A0340A01814284DD8FCF78C
:103B400057FB0B0F15181B1E2124272A2D30343943
:103B50003C3F4245474A0D00FFF7DEFE280070BD9E
:103B6000204A21491800FFF7C3FFF7E71E4A1D4905
:103B7000F8E71E4A1E49F5E71D4A1C49F2E71D4AAF
:103B80001D49EFE71C4A1B49ECE71C4A1C49E9E7C1
:103B90001B4A1A49E6E71B4A1B49E3E71A4A194937
:103BA000E0E70120FFF7A7FED8E705210220FFF795
:103BB000A6FFD3E708210620F9E70E210920F6E742
:103BC00014210F20F3E717211520F0E71820E9E76B
:103BD00022211920EBE72320E4E70125BEE7C046B8
:103BE000E087FFFFED380008C1380008BD3300084A
:103BF000953300081D340008ED3300087D340008BB
:103C00004D340008FD300008D530000830B50723DA
:103C1000012580211B4A2C009C401183204219D091
:103C20000324C046C046C046C046C046C046013C0C
:103C3000002CF6D15183C046C046C046C046C0469F
:103C4000C046C046C046C046C046C046C046013B0E
:103C5000E1D230BDC046C046C046C046C046C046A0
:103C6000C046C046C046C046C046C0460324518335
:103C7000C046C046C046C046C046C046013C002CB7
:103C8000F6D1E4E70004004810B501228021024883
:103C900002F081FF10BDC04600040048F7B5164C85
:103CA000050023780191002B03D1FFF7EDFF0123DD
:103CB000237072B600240327019B9C420CD3E0239F
:103CC0009B00C046C046C046C046C046C046013BF9
:103CD000002BF6D162B6F7BD3B006343EE18E85CFB
:103CE000FFF794FF7078FFF791FF0134B078FFF78A
:103CF0008DFFE4B2E0E7C046771E002010B5222019
:103D0000FEF7C8FD232801D0002010BDFEF7C2FD3C
:103D10000128F9D12330FEF7BDFD12384342584146
:103D2000F3E710B500280CD023212220FEF7F2FD86
:103D300001212320FEF7EEFD12212420FEF7EAFDEB
:103D400010BDFF212220FEF7E5FDFF212320FEF715
:103D5000E1FDFF21F1E7704710B52520FEF79AFD40
:103D600010BD704710B50400FFF7FBFF2520E1B23E
:103D7000FEF7D0FD10BD10B50020FFF7D2FF0020E8
:103D8000FFF7F0FF00F0AEFB00F032FC0120FFF780
:103D9000C8FF10BD10B5FFF7DEFFFFF7DDFFFFF72F
:103DA000E0FFFFF7ABFF002801D1FFF7E4FF10BDF4
:103DB00010B5FFF7FFFD10BD10B50300887800288F
:103DC00021D0154A9A180F2A14D8023BD8B200F015
:103DD0001BFC002010BD0120FDF71CFA02E00120B1
:103DE000FDF724FA032202210120FCF71BFDF0E776
:103DF0000220F5E7EE22D2019342ECD0074A93422B
:103E0000E8D10220E8E7EE22D2019342E7D0034A4C
:103E10009342EDD00120DDE7FE88FFFF017700002F
:103E2000FF23037070470020704710B5040000782E
:103E30000138032815D8FCF7DBF9020B1518FFF73A
:103E40007BF9FF23C8215843FCF72CFA607008E087
:103E5000FFF72AF90023984202D0FFF71BF903006D
:103E6000637010BDFFF750F9F0E7FFF759F9607084
:103E7000FFF75CF9A070F4E770B504000078013832
:103E800003281AD8FCF7B4F902142024FFF748F9E4
:103E90000500FFF74BF90600C8206378FF2158435F
:103EA000FCF700FA3100C2B22800FFF7ECFA04E098
:103EB0006378002B02D1FFF777FC70BDFFF76EFD32
:103EC0006078FFF737FDF8E76078FFF723F9F4E74C
:103ED0006578A478FFF730F921000200E4E70300D9
:103EE0001A7810B50230082A06D0092A07D0072A06
:103EF00008D1FFF7C1FF10BDFFF797FFFBE7FFF702
:103F0000B3F8F8E7FF221A70F5E7437810B5022BF3
:103F100002D1FFF7E4FF10BDFFF782FFFBE770B5AA
:103F200004000D00FFF77FFF002817D1207801382B
:103F3000122839D8FCF75CF90A13334D535F6262DB
:103F4000623838676B707B86898C970000236370BA
:103F50000B33A3702900200001F096FA70BD607841
:103F60000138032820D8FCF743F9020C0F1400F0A5
:103F700009FF030EA370030CE370030A2371607141
:103F8000E8E7FFF7E9FEF4E70020FEF73FF9A0704D
:103F9000E0E70023A370E37023716371DAE76378CD
:103FA000022B04D0052B10D0FF232370D2E7E27838
:103FB000A37812021A43237960791B041343000685
:103FC000184300BAFFF7CEFEC4E7A078FFF7F0FE73
:103FD000C0E7E278A178607800F052FACDE7637923
:103FE00022791B0213435BBAE278A17860789BB216
:103FF00000F061FAAEE700F075FAABE729002000A7
:10400000FFF783FFA6E700F0BEFA6070A2E700F0BA
:10401000BDFA030A6370BAE7A07863780002184318
:1040200040BAE178221D80B200F0B4FA92E7A0789D
:1040300063780002184340BAE178221D80B200F094
:10404000C1FA87E700F0D4FA84E700F017FADCE75A
:10405000A07863780002184340BAE178221D80B24C
:1040600000F05CFA76E7A07863780002184340BA63
:10407000E178221D80B200F065FA6BE770B50500AB
:104080008878002800D1CCE0674BEB18222B00D9B0
:10409000ABE0FDF765FD654C654B2080E8182128F5
:1040A00012D8FCF7A5F83FAD48191C4B1F4E5728F6
:1040B000A52B5A2E5D8731608F37676D22512554AD
:1040C0003B6A7A99A31543B50123227813434FE045
:1040D0000823627813432CE002232278F6E70423B6
:1040E0002278F3E708232278F0E701236278F1E7EA
:1040F00002236278EEE710232278E7E72023227874
:10410000E4E740232278E1E7FCF7ECFF8023227804
:104110005B42DBE70C2322789A43D7E703236278DC
:104120009A43D7E701222378934321E0082263785A
:104130009343637053E002222378F5E70422237847
:10414000F2E708222378EFE701226378F0E7022202
:104150006378EDE710222378E6E720222378E3E76F
:1041600040222378E0E7FCF7BDFF7F22237813404D
:10417000237034E00C222378D6E703226378D7E754
:104180000122042023785907C90F8A4391008343F1
:104190000B430821D2008B4398E701210800637884
:1041A000DA07D20F904302228B430343410093432B
:1041B0000B43BEE7012223785906C90F8A439201B7
:1041C0004021E8E7FCF78EFF01222378D9094A4015
:1041D0007F21D2010B4079E70120FDF731FD2088D6
:1041E000FDF7C3FCFCF77EFF002070BD0020F4E764
:1041F00001222378D906C90F8A4312011021CAE788
:10420000012108002378DA07D20F90430200C2E7A9
:10421000012263781907C90F8A430821D2008B4312
:1042200058E70120E1E7C0460090FFFF1425002079
:10423000FF8FFFFF1E4B70B51D5C07231D49C20891
:104240008E5C18401C491D4B06419C5C8A5C012316
:10425000044102411C401E401A420AD1002C12D1D6
:104260002800FCF7EBFC002E02D02C20FCF7E6FC2B
:1042700070BDE120FCF7F8FB002C0ED12800FCF704
:10428000DDFCE12006E0E620FCF7EEFB2800FCF771
:10429000D5FCE620FCF766FCE5E7E620FCF7E4FB4E
:1042A0002800FCF7CBFCE620FCF75CFCE9E7C04605
:1042B000F278000872790008927900088279000883
:1042C000F8B504000E00207800283ED0012839D12E
:1042D0006378012B0ED1A078A51CFCF7AFFC2C0055
:1042E00035000134002DEED06420013D01F099FD30
:1042F000EDB2F7E7022B04D1A078A51CFCF7B4FBC4
:10430000EDE7032B04D1A078A51CFCF72BFCE6E716
:10431000042B01D00134E3E700250C49A2780234D4
:104320008F5C601C1F4206D1002DD9D0642001F0A3
:1043300078FD013DF8E70A277D43303A5519627848
:104340000400EDE7FFF776FFCAE7F8BD1D7500082A
:1043500010B50A2001F065FD10BD10B5FCF7B8F9E5
:1043600010BD0000F8B501230024144D2B702B78EC
:10437000A3420BD8FFF7ECFF0226002101272C787F
:104380000F48104DCBB2A3420DD3F8BD202210210F
:104390000B4802F000FC202209481100013402F011
:1043A000FAFBE4B2E3E70269036912091B0933402F
:1043B0003A4013436B540131E4E7C046791E0020B4
:1043C000000400487B1E0020F8B5002401262700C9
:1043D000234B1B78A34201D83800F8BD02210320EB
:1043E000204B1A691B6912091B090B401E493240F8
:1043F00013430A5D104098422ED092001343DBB263
:104400000B550F21194A1A4D0B40D35C2A5D002130
:104410009B185BB22B55032B07DD164A2000135D5A
:1044200001331355FFF799FF31002B57033308DA97
:10443000104A3100135D2000013B1355FFF78DFF3B
:1044400031002B570C4A134004D50422013B524241
:10445000134301332B550F430134E4B2B8E7C04690
:10446000791E0020000400487B1E0020A27900086D
:104470007A1E0020781E002003000080072070476D
:10448000030070B50020062B14D8814212D1080019
:10449000052A0FD80C245C435200A41820002630B3
:1044A000FEF7F8F9050220002730FEF7F3F9ADB268
:1044B000284380B270BD70B51D00062811D80029B0
:1044C0000FD1052A0DD80C2444435200A418200013
:1044D000190A2630FEF71EFA2000E9B22730FEF74F
:1044E00019FA70BDF8B500240025FCF728F9E6B2EA
:1044F0000123EFB2A04205DD3A0000213000FCF7B5
:1045000021F903003A00002130000135FFF7D3FF05
:10451000062DEAD10134072CE6D1F8BD263070B55E
:10452000140005005618B44200D170BD2B00263B84
:104530000020532B02DC2800FEF7ACF92070013577
:104540000134F0E7263070B5140005005618B44267
:1045500000D170BD2B00263B532B03DC28002178B3
:10456000FEF7D8F901340135F1E70B0010B5002151
:10457000062806D88B4204D1052A02D8FFF780FF0F
:104580000100080010BD102070470000004870476F
:10459000860F00007A3070B5140005005618B4423A
:1045A00000D170BD2B00064A7A3B0020934202DC0A
:1045B0002800FEF76FF9207001350134EFE7C0469F
:1045C000850F00007A3070B5140005005618B4420B
:1045D00000D170BD2B00054A7A3B934203DC2800D2
:1045E0002178FEF797F901340135F0E7850F0000D7
:1045F00070B580257A246D01200000210134FEF77A
:1046000089F9AC42F8D170BDF7B505000F2853D831
:104610002A48FEF73FF900284ED180267A247601F9
:10462000002D27D1009501952000FEF733F90027D2
:104630006B46661C18705F70B8423DD0012813D1DC
:104640003000FEF727F96B46A51C5870B84233D0EE
:10465000431E022B19D82800FEF71CF96B46E61CF6
:104660009870B84228D0DF7000216846FFF728FE16
:104670003400D9E7B4421FD02000FEF70BF9013413
:104680000028F7D1013DEDB2CAE72E000428EBD196
:1046900002242800FEF7FEF86B4601351855002865
:1046A0000AD07C2805D1230000226B442E005A70CA
:1046B000DAE70134072CECD1F7BDC046FF0F00004C
:1046C00070477047704770470120704770B50D0004
:1046D0000400FFF7F5FFFCF705FDFCF78FFD2560F3
:1046E00070BD0000F7B50D4B15001B7804000E00DF
:1046F0000193FCF7F7FCFCF781FDEF00B44208D111
:10470000FCF7F0FC0198FCF771FD2800FFF7D9FFDA
:10471000F7BD2000FCF7A2FCE419EFE7AC0D002088
:1047200070B50D000499060018008B782C68002BDA
:1047300001D1A64209D0C600A31B9A4206D0200090
:104740000822A419FBF7C4FE2C6070BDFFF7BAFF66
:10475000FBE7F8B51400070010000D001E00FFF77E
:10476000B2FFE4006442BD4203D02B199A78002ABC
:1047700001D13560F8BD1D00F5E7000037B5314CBB
:104780000D002278002A27D18B78002B01D0012040
:104790003EBD2D4BC0180428F9D8FBF71FFD030BB5
:1047A000F811180029492A48FFF790FF01232370C8
:1047B0000020EDE727492648FFF788FF0223F6E7A8
:1047C0000122254B21481968FFF78CFFF0E70122F1
:1047D000224B20485242F6E71B4BC318022B19D834
:1047E0001F4BC018431E98418B788342E0D0012AAA
:1047F00003D0022A08D00023D9E7174B14491348E5
:104800000968FFF7A6FFF6E70122144B104911488B
:104810005242F5E7FFF758FF0028B8D02378012B64
:1048200008D0022BB3D101230B4A0949094800954E
:104830005B4203E0094A0649044800951268FFF705
:104840006FFFA4E780220020AD83FFFF7C1E0020C5
:104850007C22002074220020280C0020240C002040
:10486000AB83FFFF124A10B501230C00904215D113
:10487000FDF752F8A17803000E4A002910D0AA21B2
:104880000B401900481E814129201170002B00D0D7
:104890000C30FDF70BF8FDF79BF80023180010BD56
:1048A00013782920002B00D00C30FDF709F8F2E72F
:1048B000167C000081220020F8B5140082781D00CB
:1048C00006AB1F782B4B002A11D01C7000F092FA17
:1048D000294B188023002033DBB2072B06D807238F
:1048E000012023409840C0B2FCF7B0F9F8BD1E7813
:1048F000A64234D1204B188800F081FAC7282ED860
:104900002C002034E4B2AE4223D033002033DBB29B
:10491000072B06D8072301201E40B040C0B2FCF789
:104920009DF9072C03D93800FCF788F9DEE7072347
:1049300001202B409840C0B2FCF788F93800FCF702
:104940007DF9072301201D40A840C0B2FCF786F97D
:10495000CCE73800FCF772F9072CC7D8F1E7230041
:104960002033DBB2072BC1D8072301201C40A04015
:10497000EBE7C0468422002082220020204B13B5A2
:10498000C0180C00062833D8FBF732FC141A040EAA
:1049900020262C0026230093BB331A00194920003F
:1049A000FFF78AFF002016BD27230093BE331A00AD
:1049B0001549F4E72623E02200931449BB33EEE7C0
:1049C0002723E42200931249BE33E8E72623E2229C
:1049D00000931049BB33E2E72723E62200930E49F8
:1049E000BE33DCE72823E52200930C49273BD6E7BA
:1049F0008B78002B02D00022094B1A700120D2E7DD
:104A0000E883FFFF1A7C00001B7C0000187C00007C
:104A1000197C00001C7C00001D7C00001E7C000036
:104A200084220020014B18607047C0468C22002071
:104A3000034B10B51B68181E01D01B68984710BDAA
:104A40008C220020094B10B51B68002B0DD0084AA2
:104A50001278002A07D0074A12787F2A03D90278F1
:104A60004270062202705B68984710BD8C220020BD
:104A7000800D002014250020044B10B51B68002B6E
:104A800003D0022202709B68984710BD8C22002040
:104A900007B50A4A0300118881420DD01080084AE8
:104AA0001268002A08D0032101A8017069464B71E1
:104AB0001B0A8B71D368984707BDC0468822002027
:104AC0008C22002007B50A4A0300118881420DD0CC
:104AD0001080084A1268002A08D0042101A8017039
:104AE00069464B711B0A8B71D368984707BDC04656
:104AF000862200208C2200200B4A03001178052218
:104B0000002904D0094909787F2900D918320020EA
:104B100002331978002901D00130C0B2013AD2B273
:104B20000133FF2AF5D17047800D002014250020A5
:104B3000030010B5081E15D0114A1278002A12D0B1
:104B4000104A12787F2A0ED90020CC08EF2909D804
:104B500007221140063A8A401C19A0781040431ED3
:104B60009841C0B210BD9A1C08331078884204D016
:104B700001329A42F9D10020F4E70120F2E7C04661
:104B8000800D0020142500200123002270B55B4217
:104B9000851CAC5C8C420BD05E1C02D1002C00D179
:104BA00053B20132062AF4D15A1C01D0C3189970AD
:104BB00070BD002210B5831C08301C788C4200D1D7
:104BC0001A7001338342F8D110BDCB08EF2907D802
:104BD000C01807231940063B8B408278134383702B
:104BE0007047CB08EF2907D8C018072301221940C6
:104BF0008A408378934383707047000010B5074B59
:104C00001B78002B06D0064B1B787F2B02D9FFF7B1
:104C1000DCFF10BDFFF7B8FFFBE7C046800D0020AA
:104C20001425002010B5074B1B78002B06D0064B2F
:104C30001B787F2B02D9FFF7D4FF10BDFFF7B9FF18
:104C4000FBE7C046800D00201425002010B5074B5F
:104C500002301B78002B04D0054B1E221B787F2BC3
:104C600000D806220021FBF785FC10BD800D002036
:104C70001425002010B50622FBF706FC431E9841C0
:104C8000C0B210BD704710B5FFF7FCFF10BD0000AB
:104C900010B5034B0130C0B21870FFF7F4FF10BD20
:104CA00090220020032010B5024B1870FFF7EBFF95
:104CB00010BDC0469022002010B5FFF7E9FF10BDDF
:104CC000012010B5024B1870FFF7DDFF10BDC04684
:104CD0009022002010B5FFF7F3FF10BD704770471A
:104CE000704710B5FFF7FCFF10BD704710B5FFF718
:104CF000FCFF10BD10B5FFF7F1FFFDF713FBFFF749
:104D0000EEFF0020FDF782FA431E9841C0B210BDAD
:104D100010B501F02DF900F03FFE10BD10B5FBF706
:104D200017FE024801F07DF810BDC046A406000041
:104D300010B5FCF707FEFCF71BFEFCF7CBFDFDF7FB
:104D4000B1FC0020FFF7A4FE0020FFF7BBFEFBF73D
:104D500007FE10BD10B572B601F01CF90022044B1D
:104D60001860044B1A60044B1A6062B610BDC0464E
:104D70009C220020982200209422002010B5FFF7EA
:104D8000E9FF10BD70B572B601F004F9114C12497B
:104D900023680D68114AC01A854208D9104D401980
:104DA000104D5B19236013680F4C1B1913600860CA
:104DB000146862B6FA2200239200002102F01CFB64
:104DC00000230A4A801859410023094AFBF7C0FA18
:104DD000201870BD9C2200209822002094220020E0
:104DE000E006010020F9FEFF88598F029F8601002E
:104DF000A086010010B5FFF7C5FF80B210BD10B549
:104E00000400FFF7BFFF001B80B210BD10B5040007
:104E1000FFF7B8FF001B10BD054B064A1A60BFF331
:104E20004F8F054B054ADA60BFF34F8FC046FDE751
:104E3000FC3F0020EFBEADDE00ED00E00400FA050F
:104E4000BFF34F8F034B044ADA60BFF34F8FC04666
:104E5000FDE7C04600ED00E00400FA05094A0A4BF0
:104E6000116810B599420CD10023136083F31488A4
:104E7000064B1B6883F3088862B6054B1B6898478E
:104E8000FEE710BDFC3F0020EFBEADDE00C8FF1FF7
:104E900004C8FF1F7047000010B572B6024800F04A
:104EA000B5FC62B610BDC046000D00200800190018
:104EB000002320B5064D00026B60064B10431A001C
:104EC00000F05CFB28606868002800D0280020BD46
:104ED000A0220020A42200207A30084A017813780A
:104EE000022907D1012B01D0062B02D1044B5278A5
:104EF0001A707047024A1370FBE7C046A8220020D0
:104F00002C24002070B5084C050023680E00002BEF
:104F100002D0200000F0E8FD330029002000034A01
:104F200000F0DAFD70BDC04614240020314F0008A7
:104F300070B50C0072B60B78042B01D062B670BD50
:104F4000144B1B78DB09F9D1134D2B78002BF5D0CE
:104F5000124B1B78002BF1D00B899B0705D408233B
:104F6000012120000E4A01F09CFA002328780D4A06
:104F7000002102F041FA00230B4A80185941FA221D
:104F800000239200FBF7E4F921008000FFF7BAFF4D
:104F9000D4E7C046142500202E240020800D0020D8
:104FA000F4230020A0860100E7030000010070B593
:104FB00074310B787F251A0004002A40212A72D10F
:104FC00002005BB27532002B21DA1378022B19D064
:104FD000032B0ED0012B66D1030078331A780023FF
:104FE0009A4254D1424B836620230120E366226714
:104FF00070E0030078331A88002A54D13D4B836651
:105000000123F2E73C4B836601230022EDE713788E
:105010000A2B3ED00B2B0BD0092B44D10300783345
:105020001A7802239A433ED1344A8266344ADCE736
:10503000030078331B88002B28D1030076331978BE
:1050400030480B005A1E93412A4ADBB21370027893
:10505000DB012A4013430370002917D1264B1A782D
:10506000002A13D072B6284A1878002302F0C4F937
:105070000023264A80185941FA2200239200FBF7A8
:1050800067F921008000FFF73DFF62B60023A366A9
:10509000BBE703001B4977331A780978164BC90917
:1050A0001A70F3D1DCE71A4B0A889A4217D1230011
:1050B00078331A785B7821001B0213432200606862
:1050C000763277314568127820000978A8470028A1
:1050D00001D1002070BD4368A366036895E70D4BBE
:1050E0001B78002BF5D0200000F070FBF2E7C046E3
:1050F000F4230020800D00202E240020A822002070
:10510000D94E000814250020A0860100E703000006
:1051100081060000E20C002010B50F24054A11782A
:105120004B1C2340044C24789C4202D0034C137047
:10513000605410BD392500203A2500202925002083
:1051400070B50400080005293BD8FBF751F8333A45
:105150000333333B72B6012120001E4A01F04AF9A5
:10516000042120001C4A01F045F91C4B1C4D197804
:1051700020001C4A01F03EF92B00B53319782000BD
:10518000194AB63501F036F92978002903D02000F4
:10519000164A01F02FF9164800F002FB62B6154BD3
:1051A0001B78002B02D00520FFF7B6FF0220FFF787
:1051B000B3FF06E0FFF7B0FF72B60D4800F0CDFA7E
:1051C00062B670BD72B60A4800F0DFFA62B605201A
:1051D000EDE7C046E8790008C4790008E00C00203B
:1051E0002C0C0020700C0020940C0020B80C002027
:1051F000000D0020AA220020102210B50021044832
:10520000FBF7B8F90022034B1A70034B1A7010BD5C
:1052100029250020392500203A250020F8B50F2542
:1052200001240026214B224A19781378994230D163
:10523000002E00D01170F8BD13701E4B1C701E4B59
:1052400019780800431E9841C0B2FFF72BFDE8E72C
:1052500013700022174B1A70FFF76AFD164B19786E
:105260000800431E9841C0B2FFF726FDD9E713702E
:10527000114B19780800431E9841C0B2FFF708FD92
:10528000CFE7002113700800F8E71370FFF718FD4F
:10529000C7E71800094F0133385C26002B4005286A
:1052A000C4D8FAF79BFFF2C3E4EEC9D53925002034
:1052B0003A250020AA2200204F2600202925002080
:1052C00070B50400154B164A1649174E174D9A65CE
:1052D0001A1DD167164A3100A03328001A6000F069
:1052E000FDF92800134D310000F020FAAB6D124A91
:1052F00020001340AB6501F055F8104800F091FD17
:1053000020000F4901F03DF88023AA6D1B021343D2
:105310000022AB650B4B1A6070BDC0462C0C002000
:10532000340C0020480C0020DC0C0020000D002074
:105330005C0C0020005C0040FF7FFFFF8813000032
:10534000B47900081424002070B50500084C094AFF
:10535000A36D1340A36501F025F82800064901F06C
:1053600010F88023A26D1B021343A36570BDC046D5
:10537000005C0040FF7FFFFFB4790008014B187804
:105380007047C0462C24002070B5050072B61C4C36
:105390002378042B20D11B4A238912787F2A1DD918
:1053A000194A1278002A19D0DB060BD420232A00D0
:1053B0000421200001F075F8202229001348FBF792
:1053C00087F809E00121E369494258690C3000F08F
:1053D00031FD2378042BE9D062B670BD9B0703D45E
:1053E00008232A000121E4E7012123694942586981
:1053F0000C3000F01FFD2378042BEDD1F0E7C04600
:10540000D025002014250020800D0020F42300204A
:1054100070B5050072B60C4C2378042B01D062B62F
:1054200070BD2389DB0608D5FA21E3698900586934
:105430000C3000F0FFFC0130F1D006232A000421DB
:10544000200001F02EF8EAE7D025002070B5050015
:1054500072B60C4C2378042B01D062B670BD238940
:10546000DB0608D5FA21E369890058690C3000F0A1
:10547000E1FC0130F1D003232A000421200001F0D7
:1054800010F8EAE7D025002003000A0010B5202913
:1054900004D1034801684C681900A04710BDC046FC
:1054A000000D002010B588B0074820220368694627
:1054B0001C6A0023A047002804D0C1B26846FEF74A
:1054C0002EFDF1E708B010BD000D002010B5FFF76C
:1054D000C5FC10BD7047704710B5FFF7F7FF01F02E
:1054E00043FFFFF7F7FF10BD10B501F083FFFFF793
:1054F000F2FF10BD10B5FFF7EDFB10BD10B5FFF7C3
:105500007BFE0548FFF7DCFE044B054A05481A60A0
:1055100000F087FC10BDC046D025002030240020BC
:10552000840D00208813000010B5024B1868FFF7A7
:1055300079FA10BD3024002010B5FFF76FFE0C4C37
:105540002378052B06D12378052B04D0FCF740FAED
:10555000FDF78EF810BDFFF7E1FBFFF7CBFB00284E
:10556000F1D0200000F0B0FF2000FFF7EDFEEAE7E9
:10557000D025002010B5FFF795FF10BD10B5040A27
:10558000032C17D009D8012C26D05B20144B022CF9
:1055900001D000200300136010BD00200300212C67
:1055A00013D0222CF7D10229F5D80E4B8800C3580E
:1055B0000D4808E0C1B2002003000229EBD80B4BD4
:1055C0008800C3580A48405CE5E70229E3D8094B44
:1055D0008900CB580930DEE71220074BDBE7C046D5
:1055E000687A0008107A00080C7A00082C7A000803
:1055F000287A00081C7A0008C37A000813B5446BA7
:10560000E36F1A681178042915D1217A022912D181
:10561000197901238B4012891A420CD1200001A96B
:10562000443000F0B5FD021E05D0E06F019B01790A
:10563000006800F036FF13BD10B50C3000F047FDD8
:1056400010BD012310B50C305B4200F040FD10BDD1
:1056500010B5443000F007FE10BD012310B54430F2
:105660005B4200F000FE10BD10B50C3000F017FDDD
:1056700010BD012110B50C30494200F010FD10BDE5
:1056800010B5443000F0D1FD10BD012210B54430FA
:10569000524200F0CAFD10BDC36F10B51A68040075
:1056A0001178042914D1017A022911D159790123E1
:1056B0008B4052891A420BD10C3000F0A5FC021E1F
:1056C00006D0E06FA36A4179043B006800F0D6FE83
:1056D00010BD10B5406BFFF7DFFF10BD7FB50300B5
:1056E000040001260E4A0D0004C343600D4B0672F0
:1056F00002940193CB680C3000934B690A6A310025
:1057000000F05DFC2000084B02940193AB6831006F
:1057100000932B69EA69443000F014FD7FBDC04658
:10572000F07B0008D3560008FD5500080A6872B6E1
:105730000B7909339B00D31858604B7911339B00C8
:1057400098508B79002B03D009339B00D2185060FE
:105750000223C167037262B6704770B5040002216C
:105760000430022500F0C6FB012620006D4229000E
:1057700026750C3000F09AFB230020004C332900E2
:105780001E70443000F092FB70BD10B50121040082
:10579000043000F0AFFB002323754C34237010BDA0
:1057A00070B504000C3000F022FC002520002575A7
:1057B000443000F0DFFC23004C331D700121201D1C
:1057C00000F098FB2000FFF767FF70BD020060212A
:1057D0007432127803000A400020202A06D11A00F1
:1057E00075321278212A02D81F2A09D87047222A36
:1057F000FCD10200DA66002298661A670120F5E7FC
:1058000007220148F6E7C046940D0020C36F73B528
:105810001A680400117804292BD1017A022928D1B1
:105820001979012312898B4016001E401A4220D19B
:1058300005004435280000F053FD002819D0280049
:1058400001A900F0A5FCE36F05001A7E002A09D02B
:1058500001981A693100121A2818FAF78BFEE36FC3
:105860001B690193E06F2A000179019B006800F039
:1058700018FE73BD0B00F0B509339B00C3185E68BA
:1058800004000D0085B0002E2CD072B60821301D0A
:1058900000F030FB3300AF004433E7190193FB689D
:1058A0005B691B68002B02D0019800F07DFC019819
:1058B00003A900F06DFC039B021E0ED1FB685A6920
:1058C0001268002A0DD01B8A013B1A4209D1F36FDE
:1058D0001B7E002B05D1220074322900200000F02D
:1058E000E0FD62B605B0F0BD1131890010B50C586D
:1058F000002C15D072B60421201D00F0FBFA200008
:10590000E36F0C301A685B7902339B00D3185B6835
:105910009B69596800F082FB2000FFF7BDFE62B66C
:1059200010BD7047024B034A1A60034A5A60704721
:105930003C2500205826002000400020704770477A
:10594000FEE7000070B5124C626820681100A36881
:105950008B4219D8D11E00208B4203D303339B1AEC
:105960009B0898001018E368C11E0022994203D8D2
:1059700003331A1A920892000021FAF7FBFD054B37
:1059800010349C42E0D170BD20C820C1E0E7C04681
:10599000187C0008987C0008012310B5064C237081
:1059A00000236360FFF7BEFF0449054800F0BEF91D
:1059B0000223237062B610BD482500209C7C00089D
:1059C0005025002010B500F0C3F810BD024AD36A7C
:1059D0000343D3627047C0465025002010B50368CA
:1059E0009C68A2420CD85C688A600B604C602160A5
:1059F000596099688A1A9A6001235B42836010BDDE
:105A00001B68121BECE770B504000D00022900D2E0
:105A100002250226601900F0CEFA00F0BBFA041B42
:105A2000A54203D8013635000400F3E7022E02D95F
:105A30000120FFF7CBFF70BDF8B5124B1400D96100
:105A40008260114A0D0042601A690260506018615C
:105A5000022C00D20224281900F0A0FA022700F03C
:105A600099FA0600431BA34206D37C1C281900F0B8
:105A7000A2FA27003500F2E7022F02D90120FFF732
:105A8000A5FFF8BD5025002060250020F8B50500D1
:105A90000C0000F07FFA0E4B0E4F1A69BA4205D186
:105AA000010022002800FFF7C7FFF8BDDB69C31A19
:105AB000E618B34200D926009368B34202D9210008
:105AC000FFF7A1FF320029003800FFF787FFECE75E
:105AD00050250020602500200361002310B5C2601E
